{
  "_format": "hh-sol-artifact-1",
  "contractName": "GoldenFoxNFT",
  "sourceName": "contracts/GoldenFoxNFT.sol",
  "abi": [
    {
      "inputs": [],
      "stateMutability": "payable",
      "type": "constructor"
    },
    {
      "anonymous": false,
      "inputs": [
        {
          "indexed": true,
          "internalType": "address",
          "name": "owner",
          "type": "address"
        },
        {
          "indexed": true,
          "internalType": "address",
          "name": "approved",
          "type": "address"
        },
        {
          "indexed": true,
          "internalType": "uint256",
          "name": "tokenId",
          "type": "uint256"
        }
      ],
      "name": "Approval",
      "type": "event"
    },
    {
      "anonymous": false,
      "inputs": [
        {
          "indexed": true,
          "internalType": "address",
          "name": "owner",
          "type": "address"
        },
        {
          "indexed": true,
          "internalType": "address",
          "name": "operator",
          "type": "address"
        },
        {
          "indexed": false,
          "internalType": "bool",
          "name": "approved",
          "type": "bool"
        }
      ],
      "name": "ApprovalForAll",
      "type": "event"
    },
    {
      "anonymous": false,
      "inputs": [
        {
          "indexed": true,
          "internalType": "address",
          "name": "previousOwner",
          "type": "address"
        },
        {
          "indexed": true,
          "internalType": "address",
          "name": "newOwner",
          "type": "address"
        }
      ],
      "name": "OwnershipTransferred",
      "type": "event"
    },
    {
      "anonymous": false,
      "inputs": [
        {
          "indexed": true,
          "internalType": "address",
          "name": "from",
          "type": "address"
        },
        {
          "indexed": true,
          "internalType": "address",
          "name": "to",
          "type": "address"
        },
        {
          "indexed": true,
          "internalType": "uint256",
          "name": "tokenId",
          "type": "uint256"
        }
      ],
      "name": "Transfer",
      "type": "event"
    },
    {
      "inputs": [
        {
          "internalType": "address",
          "name": "to",
          "type": "address"
        },
        {
          "internalType": "uint256",
          "name": "tokenId",
          "type": "uint256"
        }
      ],
      "name": "approve",
      "outputs": [],
      "stateMutability": "nonpayable",
      "type": "function"
    },
    {
      "inputs": [
        {
          "internalType": "address",
          "name": "owner",
          "type": "address"
        }
      ],
      "name": "balanceOf",
      "outputs": [
        {
          "internalType": "uint256",
          "name": "",
          "type": "uint256"
        }
      ],
      "stateMutability": "view",
      "type": "function"
    },
    {
      "inputs": [
        {
          "internalType": "uint256",
          "name": "tokenId",
          "type": "uint256"
        }
      ],
      "name": "getApproved",
      "outputs": [
        {
          "internalType": "address",
          "name": "",
          "type": "address"
        }
      ],
      "stateMutability": "view",
      "type": "function"
    },
    {
      "inputs": [
        {
          "internalType": "address",
          "name": "owner",
          "type": "address"
        },
        {
          "internalType": "address",
          "name": "operator",
          "type": "address"
        }
      ],
      "name": "isApprovedForAll",
      "outputs": [
        {
          "internalType": "bool",
          "name": "",
          "type": "bool"
        }
      ],
      "stateMutability": "view",
      "type": "function"
    },
    {
      "inputs": [],
      "name": "isPublicMintEnabled",
      "outputs": [
        {
          "internalType": "bool",
          "name": "",
          "type": "bool"
        }
      ],
      "stateMutability": "view",
      "type": "function"
    },
    {
      "inputs": [],
      "name": "maxPerWallet",
      "outputs": [
        {
          "internalType": "uint256",
          "name": "",
          "type": "uint256"
        }
      ],
      "stateMutability": "view",
      "type": "function"
    },
    {
      "inputs": [],
      "name": "maxSupply",
      "outputs": [
        {
          "internalType": "uint256",
          "name": "",
          "type": "uint256"
        }
      ],
      "stateMutability": "view",
      "type": "function"
    },
    {
      "inputs": [
        {
          "internalType": "uint256",
          "name": "quantity_",
          "type": "uint256"
        }
      ],
      "name": "mint",
      "outputs": [],
      "stateMutability": "payable",
      "type": "function"
    },
    {
      "inputs": [],
      "name": "mintPrice",
      "outputs": [
        {
          "internalType": "uint256",
          "name": "",
          "type": "uint256"
        }
      ],
      "stateMutability": "view",
      "type": "function"
    },
    {
      "inputs": [],
      "name": "name",
      "outputs": [
        {
          "internalType": "string",
          "name": "",
          "type": "string"
        }
      ],
      "stateMutability": "view",
      "type": "function"
    },
    {
      "inputs": [],
      "name": "owner",
      "outputs": [
        {
          "internalType": "address",
          "name": "",
          "type": "address"
        }
      ],
      "stateMutability": "view",
      "type": "function"
    },
    {
      "inputs": [
        {
          "internalType": "uint256",
          "name": "tokenId",
          "type": "uint256"
        }
      ],
      "name": "ownerOf",
      "outputs": [
        {
          "internalType": "address",
          "name": "",
          "type": "address"
        }
      ],
      "stateMutability": "view",
      "type": "function"
    },
    {
      "inputs": [],
      "name": "renounceOwnership",
      "outputs": [],
      "stateMutability": "nonpayable",
      "type": "function"
    },
    {
      "inputs": [
        {
          "internalType": "address",
          "name": "from",
          "type": "address"
        },
        {
          "internalType": "address",
          "name": "to",
          "type": "address"
        },
        {
          "internalType": "uint256",
          "name": "tokenId",
          "type": "uint256"
        }
      ],
      "name": "safeTransferFrom",
      "outputs": [],
      "stateMutability": "nonpayable",
      "type": "function"
    },
    {
      "inputs": [
        {
          "internalType": "address",
          "name": "from",
          "type": "address"
        },
        {
          "internalType": "address",
          "name": "to",
          "type": "address"
        },
        {
          "internalType": "uint256",
          "name": "tokenId",
          "type": "uint256"
        },
        {
          "internalType": "bytes",
          "name": "data",
          "type": "bytes"
        }
      ],
      "name": "safeTransferFrom",
      "outputs": [],
      "stateMutability": "nonpayable",
      "type": "function"
    },
    {
      "inputs": [
        {
          "internalType": "address",
          "name": "operator",
          "type": "address"
        },
        {
          "internalType": "bool",
          "name": "approved",
          "type": "bool"
        }
      ],
      "name": "setApprovalForAll",
      "outputs": [],
      "stateMutability": "nonpayable",
      "type": "function"
    },
    {
      "inputs": [
        {
          "internalType": "string",
          "name": "baseTokenUri_",
          "type": "string"
        }
      ],
      "name": "setBaseTokenUri",
      "outputs": [],
      "stateMutability": "nonpayable",
      "type": "function"
    },
    {
      "inputs": [
        {
          "internalType": "bytes4",
          "name": "interfaceId",
          "type": "bytes4"
        }
      ],
      "name": "supportsInterface",
      "outputs": [
        {
          "internalType": "bool",
          "name": "",
          "type": "bool"
        }
      ],
      "stateMutability": "view",
      "type": "function"
    },
    {
      "inputs": [],
      "name": "symbol",
      "outputs": [
        {
          "internalType": "string",
          "name": "",
          "type": "string"
        }
      ],
      "stateMutability": "view",
      "type": "function"
    },
    {
      "inputs": [
        {
          "internalType": "uint256",
          "name": "tokenId_",
          "type": "uint256"
        }
      ],
      "name": "tokenURI",
      "outputs": [
        {
          "internalType": "string",
          "name": "",
          "type": "string"
        }
      ],
      "stateMutability": "view",
      "type": "function"
    },
    {
      "inputs": [],
      "name": "totalSupply",
      "outputs": [
        {
          "internalType": "uint256",
          "name": "",
          "type": "uint256"
        }
      ],
      "stateMutability": "view",
      "type": "function"
    },
    {
      "inputs": [
        {
          "internalType": "address",
          "name": "from",
          "type": "address"
        },
        {
          "internalType": "address",
          "name": "to",
          "type": "address"
        },
        {
          "internalType": "uint256",
          "name": "tokenId",
          "type": "uint256"
        }
      ],
      "name": "transferFrom",
      "outputs": [],
      "stateMutability": "nonpayable",
      "type": "function"
    },
    {
      "inputs": [
        {
          "internalType": "address",
          "name": "newOwner",
          "type": "address"
        }
      ],
      "name": "transferOwnership",
      "outputs": [],
      "stateMutability": "nonpayable",
      "type": "function"
    },
    {
      "inputs": [
        {
          "internalType": "address",
          "name": "",
          "type": "address"
        }
      ],
      "name": "walletMints",
      "outputs": [
        {
          "internalType": "uint256",
          "name": "",
          "type": "uint256"
        }
      ],
      "stateMutability": "view",
      "type": "function"
    },
    {
      "inputs": [],
      "name": "withdraw",
      "outputs": [],
      "stateMutability": "nonpayable",
      "type": "function"
    },
    {
      "inputs": [],
      "name": "withdrawWallet",
      "outputs": [
        {
          "internalType": "address payable",
          "name": "",
          "type": "address"
        }
      ],
      "stateMutability": "view",
      "type": "function"
    }
  ],
  "bytecode": "0x60806040526040518060400160405280600981526020017f476f6c64656e466f7800000000000000000000000000000000000000000000008152506040518060400160405280600281526020017f5250000000000000000000000000000000000000000000000000000000000000815250816000908051906020019062000088929190620001bf565b508060019080519060200190620000a1929190620001bf565b505050620000c4620000b8620000f160201b60201c565b620000f960201b60201c565b66470de4df82000060078190555060006008819055506103e86009819055506003600a81905550620002d4565b600033905090565b6000600660009054906101000a900473ffffffffffffffffffffffffffffffffffffffff16905081600660006101000a81548173ffffffffffffffffffffffffffffffffffffffff021916908373ffffffffffffffffffffffffffffffffffffffff1602179055508173ffffffffffffffffffffffffffffffffffffffff168173ffffffffffffffffffffffffffffffffffffffff167f8be0079c531659141344cd1fd0a4f28419497f9722a3daafe3b4186f6b6457e060405160405180910390a35050565b828054620001cd906200026f565b90600052602060002090601f016020900481019282620001f157600085556200023d565b82601f106200020c57805160ff19168380011785556200023d565b828001600101855582156200023d579182015b828111156200023c5782518255916020019190600101906200021f565b5b5090506200024c919062000250565b5090565b5b808211156200026b57600081600090555060010162000251565b5090565b600060028204905060018216806200028857607f821691505b602082108114156200029f576200029e620002a5565b5b50919050565b7f4e487b7100000000000000000000000000000000000000000000000000000000600052602260045260246000fd5b61335a80620002e46000396000f3fe6080604052600436106101815760003560e01c8063715018a6116100d1578063a22cb4651161008a578063d5abeb0111610064578063d5abeb011461054f578063e985e9c51461057a578063f0293fd3146105b7578063f2fde38b146105f457610181565b8063a22cb465146104c0578063b88d4fde146104e9578063c87b56dd1461051257610181565b8063715018a6146103e357806385d178f4146103fa5780638da5cb5b1461042557806395652cfa1461045057806395d89b4114610479578063a0712d68146104a457610181565b806323b872dd1161013e578063453c231011610118578063453c2310146103135780636352211e1461033e5780636817c76c1461037b57806370a08231146103a657610181565b806323b872dd146102aa5780633ccfd60b146102d357806342842e0e146102ea57610181565b80630116bc2d1461018657806301ffc9a7146101b157806306fdde03146101ee578063081812fc14610219578063095ea7b31461025657806318160ddd1461027f575b600080fd5b34801561019257600080fd5b5061019b61061d565b6040516101a891906127c3565b60405180910390f35b3480156101bd57600080fd5b506101d860048036038101906101d39190612200565b610630565b6040516101e591906127c3565b60405180910390f35b3480156101fa57600080fd5b50610203610712565b60405161021091906127de565b60405180910390f35b34801561022557600080fd5b50610240600480360381019061023b9190612297565b6107a4565b60405161024d9190612741565b60405180910390f35b34801561026257600080fd5b5061027d600480360381019061027891906121c4565b6107ea565b005b34801561028b57600080fd5b50610294610902565b6040516102a19190612a60565b60405180910390f35b3480156102b657600080fd5b506102d160048036038101906102cc91906120be565b610908565b005b3480156102df57600080fd5b506102e8610968565b005b3480156102f657600080fd5b50610311600480360381019061030c91906120be565b610a41565b005b34801561031f57600080fd5b50610328610a61565b6040516103359190612a60565b60405180910390f35b34801561034a57600080fd5b5061036560048036038101906103609190612297565b610a67565b6040516103729190612741565b60405180910390f35b34801561038757600080fd5b50610390610b19565b60405161039d9190612a60565b60405180910390f35b3480156103b257600080fd5b506103cd60048036038101906103c89190612059565b610b1f565b6040516103da9190612a60565b60405180910390f35b3480156103ef57600080fd5b506103f8610bd7565b005b34801561040657600080fd5b5061040f610beb565b60405161041c919061275c565b60405180910390f35b34801561043157600080fd5b5061043a610c11565b6040516104479190612741565b60405180910390f35b34801561045c57600080fd5b5061047760048036038101906104729190612252565b610c3b565b005b34801561048557600080fd5b5061048e610c59565b60405161049b91906127de565b60405180910390f35b6104be60048036038101906104b99190612297565b610ceb565b005b3480156104cc57600080fd5b506104e760048036038101906104e29190612188565b610ec2565b005b3480156104f557600080fd5b50610510600480360381019061050b919061210d565b610ed8565b005b34801561051e57600080fd5b5061053960048036038101906105349190612297565b610f3a565b60405161054691906127de565b60405180910390f35b34801561055b57600080fd5b50610564610fb6565b6040516105719190612a60565b60405180910390f35b34801561058657600080fd5b506105a1600480360381019061059c9190612082565b610fbc565b6040516105ae91906127c3565b60405180910390f35b3480156105c357600080fd5b506105de60048036038101906105d99190612059565b611050565b6040516105eb9190612a60565b60405180910390f35b34801561060057600080fd5b5061061b60048036038101906106169190612059565b611068565b005b600b60009054906101000a900460ff1681565b60007f80ac58cd000000000000000000000000000000000000000000000000000000007bffffffffffffffffffffffffffffffffffffffffffffffffffffffff1916827bffffffffffffffffffffffffffffffffffffffffffffffffffffffff191614806106fb57507f5b5e139f000000000000000000000000000000000000000000000000000000007bffffffffffffffffffffffffffffffffffffffffffffffffffffffff1916827bffffffffffffffffffffffffffffffffffffffffffffffffffffffff1916145b8061070b575061070a826110ec565b5b9050919050565b60606000805461072190612cb7565b80601f016020809104026020016040519081016040528092919081815260200182805461074d90612cb7565b801561079a5780601f1061076f5761010080835404028352916020019161079a565b820191906000526020600020905b81548152906001019060200180831161077d57829003601f168201915b5050505050905090565b60006107af82611156565b6004600083815260200190815260200160002060009054906101000a900473ffffffffffffffffffffffffffffffffffffffff169050919050565b60006107f582610a67565b90508073ffffffffffffffffffffffffffffffffffffffff168373ffffffffffffffffffffffffffffffffffffffff161415610866576040517f08c379a000000000000000000000000000000000000000000000000000000000815260040161085d906129e0565b60405180910390fd5b8073ffffffffffffffffffffffffffffffffffffffff166108856111a1565b73ffffffffffffffffffffffffffffffffffffffff1614806108b457506108b3816108ae6111a1565b610fbc565b5b6108f3576040517f08c379a00000000000000000000000000000000000000000000000000000000081526004016108ea90612940565b60405180910390fd5b6108fd83836111a9565b505050565b60085481565b6109196109136111a1565b82611262565b610958576040517f08c379a000000000000000000000000000000000000000000000000000000000815260040161094f90612a00565b60405180910390fd5b6109638383836112f7565b505050565b61097061155e565b6000600d60009054906101000a900473ffffffffffffffffffffffffffffffffffffffff1673ffffffffffffffffffffffffffffffffffffffff16476040516109b89061272c565b60006040518083038185875af1925050503d80600081146109f5576040519150601f19603f3d011682016040523d82523d6000602084013e6109fa565b606091505b5050905080610a3e576040517f08c379a0000000000000000000000000000000000000000000000000000000008152600401610a3590612a40565b60405180910390fd5b50565b610a5c83838360405180602001604052806000815250610ed8565b505050565b600a5481565b6000806002600084815260200190815260200160002060009054906101000a900473ffffffffffffffffffffffffffffffffffffffff169050600073ffffffffffffffffffffffffffffffffffffffff168173ffffffffffffffffffffffffffffffffffffffff161415610b10576040517f08c379a0000000000000000000000000000000000000000000000000000000008152600401610b07906129c0565b60405180910390fd5b80915050919050565b60075481565b60008073ffffffffffffffffffffffffffffffffffffffff168273ffffffffffffffffffffffffffffffffffffffff161415610b90576040517f08c379a0000000000000000000000000000000000000000000000000000000008152600401610b8790612920565b60405180910390fd5b600360008373ffffffffffffffffffffffffffffffffffffffff1673ffffffffffffffffffffffffffffffffffffffff168152602001908152602001600020549050919050565b610bdf61155e565b610be960006115dc565b565b600d60009054906101000a900473ffffffffffffffffffffffffffffffffffffffff1681565b6000600660009054906101000a900473ffffffffffffffffffffffffffffffffffffffff16905090565b610c4361155e565b8181600c9190610c54929190611e9b565b505050565b606060018054610c6890612cb7565b80601f0160208091040260200160405190810160405280929190818152602001828054610c9490612cb7565b8015610ce15780601f10610cb657610100808354040283529160200191610ce1565b820191906000526020600020905b815481529060010190602001808311610cc457829003601f168201915b5050505050905090565b600b60009054906101000a900460ff16610d3a576040517f08c379a0000000000000000000000000000000000000000000000000000000008152600401610d3190612840565b60405180910390fd5b60075481610d489190612b34565b3414610d89576040517f08c379a0000000000000000000000000000000000000000000000000000000008152600401610d8090612800565b60405180910390fd5b60095481600854610d9a9190612b34565b1115610ddb576040517f08c379a0000000000000000000000000000000000000000000000000000000008152600401610dd290612900565b60405180910390fd5b600a5481600e60003373ffffffffffffffffffffffffffffffffffffffff1673ffffffffffffffffffffffffffffffffffffffff16815260200190815260200160002054610e299190612b34565b1115610e6a576040517f08c379a0000000000000000000000000000000000000000000000000000000008152600401610e6190612980565b60405180910390fd5b60005b81811015610ebe5760006001600854610e869190612b34565b905060086000815480929190610e9b90612d1a565b9190505550610eaa33826116a2565b508080610eb690612d1a565b915050610e6d565b5050565b610ed4610ecd6111a1565b83836116c0565b5050565b610ee9610ee36111a1565b83611262565b610f28576040517f08c379a0000000000000000000000000000000000000000000000000000000008152600401610f1f90612a00565b60405180910390fd5b610f348484848461182d565b50505050565b6060610f4582611889565b610f84576040517f08c379a0000000000000000000000000000000000000000000000000000000008152600401610f7b90612a20565b60405180910390fd5b600c610f8f836118f5565b604051602001610fa09291906126fd565b6040516020818303038152906040529050919050565b60095481565b6000600560008473ffffffffffffffffffffffffffffffffffffffff1673ffffffffffffffffffffffffffffffffffffffff16815260200190815260200160002060008373ffffffffffffffffffffffffffffffffffffffff1673ffffffffffffffffffffffffffffffffffffffff16815260200190815260200160002060009054906101000a900460ff16905092915050565b600e6020528060005260406000206000915090505481565b61107061155e565b600073ffffffffffffffffffffffffffffffffffffffff168173ffffffffffffffffffffffffffffffffffffffff1614156110e0576040517f08c379a00000000000000000000000000000000000000000000000000000000081526004016110d790612860565b60405180910390fd5b6110e9816115dc565b50565b60007f01ffc9a7000000000000000000000000000000000000000000000000000000007bffffffffffffffffffffffffffffffffffffffffffffffffffffffff1916827bffffffffffffffffffffffffffffffffffffffffffffffffffffffff1916149050919050565b61115f81611889565b61119e576040517f08c379a0000000000000000000000000000000000000000000000000000000008152600401611195906129c0565b60405180910390fd5b50565b600033905090565b816004600083815260200190815260200160002060006101000a81548173ffffffffffffffffffffffffffffffffffffffff021916908373ffffffffffffffffffffffffffffffffffffffff160217905550808273ffffffffffffffffffffffffffffffffffffffff1661121c83610a67565b73ffffffffffffffffffffffffffffffffffffffff167f8c5be1e5ebec7d5bd14f71427d1e84f3dd0314c0f7b2291e5b200ac8c7c3b92560405160405180910390a45050565b60008061126e83610a67565b90508073ffffffffffffffffffffffffffffffffffffffff168473ffffffffffffffffffffffffffffffffffffffff1614806112b057506112af8185610fbc565b5b806112ee57508373ffffffffffffffffffffffffffffffffffffffff166112d6846107a4565b73ffffffffffffffffffffffffffffffffffffffff16145b91505092915050565b8273ffffffffffffffffffffffffffffffffffffffff1661131782610a67565b73ffffffffffffffffffffffffffffffffffffffff161461136d576040517f08c379a000000000000000000000000000000000000000000000000000000000815260040161136490612880565b60405180910390fd5b600073ffffffffffffffffffffffffffffffffffffffff168273ffffffffffffffffffffffffffffffffffffffff1614156113dd576040517f08c379a00000000000000000000000000000000000000000000000000000000081526004016113d4906128c0565b60405180910390fd5b6113e8838383611aa2565b6113f36000826111a9565b6001600360008573ffffffffffffffffffffffffffffffffffffffff1673ffffffffffffffffffffffffffffffffffffffff16815260200190815260200160002060008282546114439190612bbb565b925050819055506001600360008473ffffffffffffffffffffffffffffffffffffffff1673ffffffffffffffffffffffffffffffffffffffff168152602001908152602001600020600082825461149a9190612b34565b92505081905550816002600083815260200190815260200160002060006101000a81548173ffffffffffffffffffffffffffffffffffffffff021916908373ffffffffffffffffffffffffffffffffffffffff160217905550808273ffffffffffffffffffffffffffffffffffffffff168473ffffffffffffffffffffffffffffffffffffffff167fddf252ad1be2c89b69c2b068fc378daa952ba7f163c4a11628f55a4df523b3ef60405160405180910390a4611559838383611aa7565b505050565b6115666111a1565b73ffffffffffffffffffffffffffffffffffffffff16611584610c11565b73ffffffffffffffffffffffffffffffffffffffff16146115da576040517f08c379a00000000000000000000000000000000000000000000000000000000081526004016115d1906129a0565b60405180910390fd5b565b6000600660009054906101000a900473ffffffffffffffffffffffffffffffffffffffff16905081600660006101000a81548173ffffffffffffffffffffffffffffffffffffffff021916908373ffffffffffffffffffffffffffffffffffffffff1602179055508173ffffffffffffffffffffffffffffffffffffffff168173ffffffffffffffffffffffffffffffffffffffff167f8be0079c531659141344cd1fd0a4f28419497f9722a3daafe3b4186f6b6457e060405160405180910390a35050565b6116bc828260405180602001604052806000815250611aac565b5050565b8173ffffffffffffffffffffffffffffffffffffffff168373ffffffffffffffffffffffffffffffffffffffff16141561172f576040517f08c379a0000000000000000000000000000000000000000000000000000000008152600401611726906128e0565b60405180910390fd5b80600560008573ffffffffffffffffffffffffffffffffffffffff1673ffffffffffffffffffffffffffffffffffffffff16815260200190815260200160002060008473ffffffffffffffffffffffffffffffffffffffff1673ffffffffffffffffffffffffffffffffffffffff16815260200190815260200160002060006101000a81548160ff0219169083151502179055508173ffffffffffffffffffffffffffffffffffffffff168373ffffffffffffffffffffffffffffffffffffffff167f17307eab39ab6107e8899845ad3d59bd9653f200f220920489ca2b5937696c318360405161182091906127c3565b60405180910390a3505050565b6118388484846112f7565b61184484848484611b07565b611883576040517f08c379a000000000000000000000000000000000000000000000000000000000815260040161187a90612820565b60405180910390fd5b50505050565b60008073ffffffffffffffffffffffffffffffffffffffff166002600084815260200190815260200160002060009054906101000a900473ffffffffffffffffffffffffffffffffffffffff1673ffffffffffffffffffffffffffffffffffffffff1614159050919050565b6060600082141561193d576040518060400160405280600181526020017f30000000000000000000000000000000000000000000000000000000000000008152509050611a9d565b600082905060005b6000821461196f57808061195890612d1a565b915050600a826119689190612b8a565b9150611945565b60008167ffffffffffffffff8111156119b1577f4e487b7100000000000000000000000000000000000000000000000000000000600052604160045260246000fd5b6040519080825280601f01601f1916602001820160405280156119e35781602001600182028036833780820191505090505b5090505b60008514611a96576001826119fc9190612bbb565b9150600a85611a0b9190612d63565b6030611a179190612b34565b60f81b818381518110611a53577f4e487b7100000000000000000000000000000000000000000000000000000000600052603260045260246000fd5b60200101907effffffffffffffffffffffffffffffffffffffffffffffffffffffffffffff1916908160001a905350600a85611a8f9190612b8a565b94506119e7565b8093505050505b919050565b505050565b505050565b611ab68383611c9e565b611ac36000848484611b07565b611b02576040517f08c379a0000000000000000000000000000000000000000000000000000000008152600401611af990612820565b60405180910390fd5b505050565b6000611b288473ffffffffffffffffffffffffffffffffffffffff16611e78565b15611c91578373ffffffffffffffffffffffffffffffffffffffff1663150b7a02611b516111a1565b8786866040518563ffffffff1660e01b8152600401611b739493929190612777565b602060405180830381600087803b158015611b8d57600080fd5b505af1925050508015611bbe57506040513d601f19601f82011682018060405250810190611bbb9190612229565b60015b611c41573d8060008114611bee576040519150601f19603f3d011682016040523d82523d6000602084013e611bf3565b606091505b50600081511415611c39576040517f08c379a0000000000000000000000000000000000000000000000000000000008152600401611c3090612820565b60405180910390fd5b805181602001fd5b63150b7a0260e01b7bffffffffffffffffffffffffffffffffffffffffffffffffffffffff1916817bffffffffffffffffffffffffffffffffffffffffffffffffffffffff191614915050611c96565b600190505b949350505050565b600073ffffffffffffffffffffffffffffffffffffffff168273ffffffffffffffffffffffffffffffffffffffff161415611d0e576040517f08c379a0000000000000000000000000000000000000000000000000000000008152600401611d0590612960565b60405180910390fd5b611d1781611889565b15611d57576040517f08c379a0000000000000000000000000000000000000000000000000000000008152600401611d4e906128a0565b60405180910390fd5b611d6360008383611aa2565b6001600360008473ffffffffffffffffffffffffffffffffffffffff1673ffffffffffffffffffffffffffffffffffffffff1681526020019081526020016000206000828254611db39190612b34565b92505081905550816002600083815260200190815260200160002060006101000a81548173ffffffffffffffffffffffffffffffffffffffff021916908373ffffffffffffffffffffffffffffffffffffffff160217905550808273ffffffffffffffffffffffffffffffffffffffff16600073ffffffffffffffffffffffffffffffffffffffff167fddf252ad1be2c89b69c2b068fc378daa952ba7f163c4a11628f55a4df523b3ef60405160405180910390a4611e7460008383611aa7565b5050565b6000808273ffffffffffffffffffffffffffffffffffffffff163b119050919050565b828054611ea790612cb7565b90600052602060002090601f016020900481019282611ec95760008555611f10565b82601f10611ee257803560ff1916838001178555611f10565b82800160010185558215611f10579182015b82811115611f0f578235825591602001919060010190611ef4565b5b509050611f1d9190611f21565b5090565b5b80821115611f3a576000816000905550600101611f22565b5090565b6000611f51611f4c84612aa0565b612a7b565b905082815260208101848484011115611f6957600080fd5b611f74848285612c75565b509392505050565b600081359050611f8b816132c8565b92915050565b600081359050611fa0816132df565b92915050565b600081359050611fb5816132f6565b92915050565b600081519050611fca816132f6565b92915050565b600082601f830112611fe157600080fd5b8135611ff1848260208601611f3e565b91505092915050565b60008083601f84011261200c57600080fd5b8235905067ffffffffffffffff81111561202557600080fd5b60208301915083600182028301111561203d57600080fd5b9250929050565b6000813590506120538161330d565b92915050565b60006020828403121561206b57600080fd5b600061207984828501611f7c565b91505092915050565b6000806040838503121561209557600080fd5b60006120a385828601611f7c565b92505060206120b485828601611f7c565b9150509250929050565b6000806000606084860312156120d357600080fd5b60006120e186828701611f7c565b93505060206120f286828701611f7c565b925050604061210386828701612044565b9150509250925092565b6000806000806080858703121561212357600080fd5b600061213187828801611f7c565b945050602061214287828801611f7c565b935050604061215387828801612044565b925050606085013567ffffffffffffffff81111561217057600080fd5b61217c87828801611fd0565b91505092959194509250565b6000806040838503121561219b57600080fd5b60006121a985828601611f7c565b92505060206121ba85828601611f91565b9150509250929050565b600080604083850312156121d757600080fd5b60006121e585828601611f7c565b92505060206121f685828601612044565b9150509250929050565b60006020828403121561221257600080fd5b600061222084828501611fa6565b91505092915050565b60006020828403121561223b57600080fd5b600061224984828501611fbb565b91505092915050565b6000806020838503121561226557600080fd5b600083013567ffffffffffffffff81111561227f57600080fd5b61228b85828601611ffa565b92509250509250929050565b6000602082840312156122a957600080fd5b60006122b784828501612044565b91505092915050565b6122c981612c01565b82525050565b6122d881612bef565b82525050565b6122e781612c13565b82525050565b60006122f882612ae6565b6123028185612afc565b9350612312818560208601612c84565b61231b81612e50565b840191505092915050565b600061233182612af1565b61233b8185612b18565b935061234b818560208601612c84565b61235481612e50565b840191505092915050565b600061236a82612af1565b6123748185612b29565b9350612384818560208601612c84565b80840191505092915050565b6000815461239d81612cb7565b6123a78186612b29565b945060018216600081146123c257600181146123d357612406565b60ff19831686528186019350612406565b6123dc85612ad1565b60005b838110156123fe578154818901526001820191506020810190506123df565b838801955050505b50505092915050565b600061241c601083612b18565b915061242782612e61565b602082019050919050565b600061243f603283612b18565b915061244a82612e8a565b604082019050919050565b6000612462601383612b18565b915061246d82612ed9565b602082019050919050565b6000612485602683612b18565b915061249082612f02565b604082019050919050565b60006124a8602583612b18565b91506124b382612f51565b604082019050919050565b60006124cb601c83612b18565b91506124d682612fa0565b602082019050919050565b60006124ee602483612b18565b91506124f982612fc9565b604082019050919050565b6000612511601983612b18565b915061251c82613018565b602082019050919050565b6000612534600883612b18565b915061253f82613041565b602082019050919050565b6000612557602983612b18565b91506125628261306a565b604082019050919050565b600061257a603e83612b18565b9150612585826130b9565b604082019050919050565b600061259d602083612b18565b91506125a882613108565b602082019050919050565b60006125c0600583612b29565b91506125cb82613131565b600582019050919050565b60006125e3601183612b18565b91506125ee8261315a565b602082019050919050565b6000612606602083612b18565b915061261182613183565b602082019050919050565b6000612629601883612b18565b9150612634826131ac565b602082019050919050565b600061264c602183612b18565b9150612657826131d5565b604082019050919050565b600061266f600083612b0d565b915061267a82613224565b600082019050919050565b6000612692602e83612b18565b915061269d82613227565b604082019050919050565b60006126b5601583612b18565b91506126c082613276565b602082019050919050565b60006126d8600f83612b18565b91506126e38261329f565b602082019050919050565b6126f781612c6b565b82525050565b60006127098285612390565b9150612715828461235f565b9150612720826125b3565b91508190509392505050565b600061273782612662565b9150819050919050565b600060208201905061275660008301846122cf565b92915050565b600060208201905061277160008301846122c0565b92915050565b600060808201905061278c60008301876122cf565b61279960208301866122cf565b6127a660408301856126ee565b81810360608301526127b881846122ed565b905095945050505050565b60006020820190506127d860008301846122de565b92915050565b600060208201905081810360008301526127f88184612326565b905092915050565b600060208201905081810360008301526128198161240f565b9050919050565b6000602082019050818103600083015261283981612432565b9050919050565b6000602082019050818103600083015261285981612455565b9050919050565b6000602082019050818103600083015261287981612478565b9050919050565b600060208201905081810360008301526128998161249b565b9050919050565b600060208201905081810360008301526128b9816124be565b9050919050565b600060208201905081810360008301526128d9816124e1565b9050919050565b600060208201905081810360008301526128f981612504565b9050919050565b6000602082019050818103600083015261291981612527565b9050919050565b600060208201905081810360008301526129398161254a565b9050919050565b600060208201905081810360008301526129598161256d565b9050919050565b6000602082019050818103600083015261297981612590565b9050919050565b60006020820190508181036000830152612999816125d6565b9050919050565b600060208201905081810360008301526129b9816125f9565b9050919050565b600060208201905081810360008301526129d98161261c565b9050919050565b600060208201905081810360008301526129f98161263f565b9050919050565b60006020820190508181036000830152612a1981612685565b9050919050565b60006020820190508181036000830152612a39816126a8565b9050919050565b60006020820190508181036000830152612a59816126cb565b9050919050565b6000602082019050612a7560008301846126ee565b92915050565b6000612a85612a96565b9050612a918282612ce9565b919050565b6000604051905090565b600067ffffffffffffffff821115612abb57612aba612e21565b5b612ac482612e50565b9050602081019050919050565b60008190508160005260206000209050919050565b600081519050919050565b600081519050919050565b600082825260208201905092915050565b600081905092915050565b600082825260208201905092915050565b600081905092915050565b6000612b3f82612c6b565b9150612b4a83612c6b565b9250827fffffffffffffffffffffffffffffffffffffffffffffffffffffffffffffffff03821115612b7f57612b7e612d94565b5b828201905092915050565b6000612b9582612c6b565b9150612ba083612c6b565b925082612bb057612baf612dc3565b5b828204905092915050565b6000612bc682612c6b565b9150612bd183612c6b565b925082821015612be457612be3612d94565b5b828203905092915050565b6000612bfa82612c4b565b9050919050565b6000612c0c82612c4b565b9050919050565b60008115159050919050565b60007fffffffff0000000000000000000000000000000000000000000000000000000082169050919050565b600073ffffffffffffffffffffffffffffffffffffffff82169050919050565b6000819050919050565b82818337600083830152505050565b60005b83811015612ca2578082015181840152602081019050612c87565b83811115612cb1576000848401525b50505050565b60006002820490506001821680612ccf57607f821691505b60208210811415612ce357612ce2612df2565b5b50919050565b612cf282612e50565b810181811067ffffffffffffffff82111715612d1157612d10612e21565b5b80604052505050565b6000612d2582612c6b565b91507fffffffffffffffffffffffffffffffffffffffffffffffffffffffffffffffff821415612d5857612d57612d94565b5b600182019050919050565b6000612d6e82612c6b565b9150612d7983612c6b565b925082612d8957612d88612dc3565b5b828206905092915050565b7f4e487b7100000000000000000000000000000000000000000000000000000000600052601160045260246000fd5b7f4e487b7100000000000000000000000000000000000000000000000000000000600052601260045260246000fd5b7f4e487b7100000000000000000000000000000000000000000000000000000000600052602260045260246000fd5b7f4e487b7100000000000000000000000000000000000000000000000000000000600052604160045260246000fd5b6000601f19601f8301169050919050565b7f77726f6e67206d696e742076616c756500000000000000000000000000000000600082015250565b7f4552433732313a207472616e7366657220746f206e6f6e20455243373231526560008201527f63656976657220696d706c656d656e7465720000000000000000000000000000602082015250565b7f6d696e74696e67206e6f7420656e61626c656400000000000000000000000000600082015250565b7f4f776e61626c653a206e6577206f776e657220697320746865207a65726f206160008201527f6464726573730000000000000000000000000000000000000000000000000000602082015250565b7f4552433732313a207472616e736665722066726f6d20696e636f72726563742060008201527f6f776e6572000000000000000000000000000000000000000000000000000000602082015250565b7f4552433732313a20746f6b656e20616c7265616479206d696e74656400000000600082015250565b7f4552433732313a207472616e7366657220746f20746865207a65726f2061646460008201527f7265737300000000000000000000000000000000000000000000000000000000602082015250565b7f4552433732313a20617070726f766520746f2063616c6c657200000000000000600082015250565b7f736f6c64206f7574000000000000000000000000000000000000000000000000600082015250565b7f4552433732313a2061646472657373207a65726f206973206e6f74206120766160008201527f6c6964206f776e65720000000000000000000000000000000000000000000000602082015250565b7f4552433732313a20617070726f76652063616c6c6572206973206e6f7420746f60008201527f6b656e206f776e6572206e6f7220617070726f76656420666f7220616c6c0000602082015250565b7f4552433732313a206d696e7420746f20746865207a65726f2061646472657373600082015250565b7f2e6a736f6e000000000000000000000000000000000000000000000000000000600082015250565b7f657863656564206d61782077616c6c6574000000000000000000000000000000600082015250565b7f4f776e61626c653a2063616c6c6572206973206e6f7420746865206f776e6572600082015250565b7f4552433732313a20696e76616c696420746f6b656e2049440000000000000000600082015250565b7f4552433732313a20617070726f76616c20746f2063757272656e74206f776e6560008201527f7200000000000000000000000000000000000000000000000000000000000000602082015250565b50565b7f4552433732313a2063616c6c6572206973206e6f7420746f6b656e206f776e6560008201527f72206e6f7220617070726f766564000000000000000000000000000000000000602082015250565b7f546f6b656e20646f6573206e6f74206578697374210000000000000000000000600082015250565b7f7769746864726177206661696c65640000000000000000000000000000000000600082015250565b6132d181612bef565b81146132dc57600080fd5b50565b6132e881612c13565b81146132f357600080fd5b50565b6132ff81612c1f565b811461330a57600080fd5b50565b61331681612c6b565b811461332157600080fd5b5056fea26469706673582212206f55d67a06f2b605d15a613c1f50dbd1b34e8e4aa546950af056e9cf5d1d7d0564736f6c63430008040033",
  "linkReferences": {},
  "deployedLinkReferences": {}
}